:100000000C9434000C943E000C943E000C943E0082
:100010000C943E000C943E000C943E000C943E0068
:100020000C943E000C943E000C943E000C943E0058
:100030000C943E000C943E000C943E000C943E0048
:100040000C943E000C943E000C943E000C943E0038
:100050000C943E000C943E000C943E000C943E0028
:100060000C943E000C943E0011241FBECFEFD8E04C
:10007000DEBFCDBF0E94CD000C94E0000C940000C8
:10008000209A5098589A5198599A089580E48093EC
:100090007C0087E880937A00089590917C00987F97
:1000A00090937C0090917C008770892B80937C00DA
:1000B00080917A00806480937A0080917A0084FF36
:1000C000FCCF80917A00806180937A002091780043
:1000D00030917900C901089584B5816884BD85B5E2
:1000E000836085BD569A08959C01823D910580F4F8
:1000F0008DEC90E0909389008093880088EC90E0EC
:1001000020E931E0F9013197F1F70197D9F7089526
:10011000825D90408C52914080F48AE991E0909306
:1001200089008093880088EC90E020E931E0F901B3
:100130003197F1F70197D9F70895C9018E5F914082
:10014000883C910580F48DEC92E090938900809337
:10015000880088EC90E020E931E0F9013197F1F76F
:100160000197D9F70895265C32402B53314080F433
:100170008DEC93E0909389008093880088EC90E068
:1001800020E931E0F9013197F1F70197D9F70895A6
:10019000109289001092880008950E9446000E94E3
:1001A00040000E946C00489909C0499907C0289AEC
:1001B00080E00E944D000E947400F5CF2898F3CF94
:0401C000F894FFCFE1
:00000001FF
