:100000000C9434000C943E000C943E000C943E0082
:100010000C943E000C943E000C943E000C943E0068
:100020000C943E000C943E000C943E000C943E0058
:100030000C943E000C943E000C943E000C943E0048
:100040000C943E000C943E000C943E000C943E0038
:100050000C943E000C943E000C943E000C943E0028
:100060000C943E000C943E0011241FBECFEFD8E04C
:10007000DEBFCDBF0E94EC000C9405010C94000083
:10008000209A5098589A5198599A089580E48093EC
:100090007C0087E880937A00089590917C00987F97
:1000A00090937C0090917C008770892B80937C00DA
:1000B00080917A00806480937A0080917A0084FF36
:1000C000FCCF80917A00806180937A002091780043
:1000D00030917900C901089584B5816884BD85B5E2
:1000E000836085BD569A08959C01823D910588F4F0
:1000F0008DEC90E0909389008093880088EC90E0EC
:1001000020E931E0F9013197F1F70197D9F781E45E
:100110000895825D90408C52914088F48AE991E084
:10012000909389008093880088EC90E020E931E08A
:10013000F9013197F1F70197D9F782E40895C901E0
:100140008E5F9140883C910588F48DEC92E090930D
:1001500089008093880088EC90E020E931E0F90183
:100160003197F1F70197D9F783E40895265C32407F
:100170002B53314088F48DEC93E090938900809369
:10018000880088EC90E020E931E0F9013197F1F73F
:100190000197D9F784E4089510928900109288009D
:1001A00080E308958093C4009093C50084E4809315
:1001B000C20088ED8093C10008958091C00087FF40
:1001C000FCCF8091C6000895982F8091C00085FFD4
:1001D000FCCF9093C60008950E9446000E94400004
:1001E0000E946C0087E690E00E94D20048990BC004
:1001F000499909C0289A80E00E944D000E9474002D
:0E0200000E94E400F3CF2898F1CFF894FFCFCE
:00000001FF
